:020000040800F2
:10000000000400201D8100081F8100081F810008D6
:100010001F8100081F8100081F8100081F81000840
:100020001F8100081F8100081F81000885BD00088E
:100030001F8100081F8100081F8100081F81000820
:100040001F8100081F8100081F8100081F81000810
:100050001F8100081F8100081F8100081F81000800
:100060001F8100081F8100081F8100081F810008F0
:100070001F8100081F8100081F8100081F810008E0
:100080001F8100081F8100081F8100081F810008D0
:100090001F8100081F8100081F8100081F810008C0
:1000A0001F8100081F8100081F8100081F810008B0
:1000B00037C600081F8100081F8100081F81000843
:1000C0001F8100081F8100081F8100081F81000890
:1000D0001F8100081F8100081F8100081F81000880
:1000E0001F8100081F8100081F8100081F81000870
:1000F0001F8100081F8100081F8100081F81000860
:100100001F8100081F8100081F8100081F8100084F
:100110001F8100081F8100081F8100081F8100083F
:100120001F8100081F8100081F8100081F8100082F
:100130001F8100081F8100081F8100081F8100081F
:100140001F8100081F8100081F81000891D100084D
:100150001F8100081F8100081F8100081F810008FF
:100160001F8100081F8100081F8100081F810008EF
:100170001F8100081F8100081F8100081F810008DF
:100180001F8100081F8100081F8100081F810008CF
:100190001F8100081F8100081F8100081F810008BF
:1001A0001F8100081F8100081F8100081F810008AF
:1001B0001F8100081F8100081F8100081F8100089F
:1001C0001F8100081F8100081F8100081F8100088F
:1001D0001F8100081F8100081F8100081F8100087F
:1080000072B6374880F30888364880F309883648C6
:108010003649086040F20000CCF200004EF63471A0
:10802000CEF200010860BFF34F8FBFF36F8F40F2B5
:108030000000C0F2F0004EF68851CEF20001086058
:10804000BFF34F8FBFF36F8F4FF00000E1EE100AC8
:108050004EF63C71CEF200010860062080F31488D1
:10806000BFF36F8F03F03CFB03F099FA4FF05530EC
:108070001F491B4A91423CBF41F8040BFAE71D49D6
:10808000184A91423CBF41F8040BFAE71A491B4ACF
:108090001B4B9A423EBF51F8040B42F8040BF8E721
:1080A00000201849184A91423CBF41F8040BFAE7F6
:1080B00003F01AFB03F015FB144C154DAC4203DA28
:1080C00054F8041B8847F9E701F0FAFD114C124DF2
:1080D000AC4203DA54F8041B8847F9E703F002BB0B
:1080E00000040020000C00200000000808ED00E063
:1080F00000000020000400208CE00008000C00209C
:108100002C0C0020300C00204C15002000800008B2
:1081100000800008008000080080000870E700F080
:1081200000F8FEE72DE9F04F2DED108AC1F80CD0D4
:10813000C3689D46BDEC108ABDE8F08F002383F331
:1081400011882846A047002003F074FDFEE703F0E5
:10815000CDFC00DFFEE7000053B94AB9002908BF93
:1081600000281CBF4FF0FF314FF0FF3000F00CB87B
:10817000ADF1080C6DE904CE05F022FADDF804E05B
:10818000DDE9022304B07047704700BF01280DD815
:1081900005290BD8142A09D87E235843152303FB3D
:1081A00001010A44024B33F8120070470120704766
:1081B000ACD80008FFF7EABF0120704708B5FFF709
:1081C000FBFF08BD012070470120704708B5FFF78D
:1081D000FBFF08BD704708B5FFF7FCFF08BD0000B6
:1081E00013B502AB03E903000F4B1B78B3B99DF83D
:1081F000053073B16AB100F003FD044601460098F2
:1082000000F0C4FC0099204602B0BDE8104001F027
:10821000C9BA009800F0DAFC0446F3E7009800F0D1
:10822000EFFC0099F0E700BF380C0020034610B4C3
:1082300000885C880A4640EA044099885DF8044B4F
:10824000FFF7CEBF10B501210446FFF7EFFF21462F
:10825000FFF7B4FF10BD10B500210446FFF7E6FF9D
:108260002146FFF7B8FF10BD704708B500F0A4FB2A
:10827000FFF7FAFFBDE8084046F2A81003F0DFBCA4
:1082800008B5FFF7F2FFBDE8084002F0C9BE08B527
:10829000FFF7EBFFBDE8084002F0C7BE38B501218B
:1082A0000546FFF7C3FF29460446FFF78FFF88B353
:1082B0002946204602F018FC60B32946204602F009
:1082C000ABFA38B32946204602F08CFB10B36B7929
:1082D0007BB147F65A439C4223D00ED847F6014360
:1082E0009C421BD047F603439C4215D0B4F5F84F8F
:1082F0000ED02846FFF766FF0DE047F65B439C4231
:1083000012D047F65C439C42F3D101F003F8F0E74A
:10831000FFF7B6FF002038BD01F00EF8FFF7B7FFFA
:10832000F8E701F003F8E4E701F003F8E1E708B546
:1083300002F0ABFDBDE8084000F01FB808B500F042
:1083400021F8BDE8084002F0A5BD70470120704744
:10835000704738B50546FFF7F9FF044610B12846C7
:10836000FFF7F6FF204638BD704710B50446FFF70B
:10837000ECFF2046FFF7EDFF10BD08B50020FFF72A
:10838000F4FF08BD08B502F003FCFFF7EEFF08BDDF
:1083900010B502F0FDFB074B1A788242044607D065
:1083A000187002F0C9FD044B18602046FFF7DDFF8E
:1083B00010BD00BF300C0020340C00201FB56C46EF
:1083C00084E803009DF805300BB100F0D3FE0023D4
:1083D000ADF80E3094E80300ADF80C10C9B202906D
:1083E00002AC29B994E8030000F008FE04B010BD07
:1083F0002046FFF727FF0028F4D1F7E70379012B88
:1084000002D1008800F01EBC704708B529B101F008
:10841000E3FCBDE8084001F0BDBD01F02FFDF8E729
:1084200010B50446002843D0031FDBB2A02B11D89F
:10843000204B0146186802F02BFC20B1204600F0CA
:1084400047FE00F0DFFE204600F03AFEBDE8104097
:1084500000F0D8BE00F12003DBB2072B07D800F0F4
:1084600007040120A040C0B200F05EFEEEE700F17C
:108470005B03DBB2022B05D82438BDE8104080B284
:1084800002F0B0BB00F15803DBB21A2B06D80A4A3F
:10849000BDE8104032F8130002F0C0BB3334E4B240
:1084A000122C05D801F098FCBDE8104001F072BD17
:1084B00010BD00BF000C0020A4DA000808B5034678
:1084C000A0B3021FD2B2A02A05D800F001FEBDE879
:1084D000084000F097BE00F12002D2B2072A07D868
:1084E00000F0070301209840C0B200F025FEEEE73F
:1084F00000F15B02D2B2022A04D8BDE80840002095
:1085000002F070BB00F15802D2B21A2A04D8BDE8BA
:108510000840002002F082BB3333DBB2122B05D8B7
:1085200001F0ACFCBDE8084001F034BD08BD38B531
:1085300005460C46FFF774FF1CB92846FFF7BEFF3F
:1085400038BD6420013C03F07AFBA4B2F4E708B51F
:1085500039280CBF50210021FFF7E9FF08BD08B5FD
:1085600028B100F0E1FDBDE8084000F04BBE08BDB9
:1085700008B528B100F0E0FDBDE8084000F042BEBB
:1085800008BD00002DE9F8438779457980460C46FF
:1085900000F0BAFD3F090646F0B12E46E5B1C4F33E
:1085A000072303F0F002402A09D004F12002D2B2DE
:1085B000072A23D91FB903F0E003202B20D0A54BB5
:1085C0005E7816F0040607D0022000F073FE00F07B
:1085D0009BFD80F00106F6B2C4F303330B2B3DD8AC
:1085E000DFE813F01000100054005400AE00C50086
:1085F0003C003C00CA002D01410141010026EBE78F
:108600003E46E9E7C4F30723C4F303270F2B88BFD3
:108610003F01E4B285B157B104F12003DBB2072B6F
:10862000384600D92CB900F07FFD00F0EBFD204664
:108630004CE000F08FFDF8E72046FFF73FFF6FB1F9
:1086400004F12003DBB2072B384600D914B900F03F
:1086500073FD01E000F086FD00F0D4FD002E00F077
:108660005E8100F049FD10F0010040F0588188F86B
:10867000050000F03BFD00F021FA404600F066F9ED
:1086800000F034FDBDE8F84300F024BAC4F307233A
:1086900003F0F003C4F30329202BE4B218BF4FEA20
:1086A00009192CB1012C34D0002D3CD0DFB1BEE72C
:1086B000684B5B78580714D45DB1B9F1000F04D052
:1086C000484600F031FD00F09DFD0020FFF7A8FEB8
:1086D000C4E72846FFF7F2FEB9F1000FBED04846C6
:1086E000B5E755B11FB94846FFF739FFB6E7012F87
:1086F000B4D1484600F05EFDB0E7002FAED1484649
:10870000FFF736FF484600F063FD484600F03EFDA7
:10871000A4E715B1052FA1D8E5E7042F9ED8484658
:10872000FFF726FF9AE7002FF9D0392C0CBF4FF442
:10873000FA50012003F083FA2046FFF7BFFE8DE7D1
:1087400014F4406FC4F3812307D0012B86D165B1A7
:10875000C4F3090002F062FA80E725B1C4F309000E
:1087600002F040FA7AE72846FAE72846F2E7294677
:10877000E0B2FFF74AFE71E714F4407F2DD1F5B95E
:10878000C4F34213E1064FEA830348BF0F25DBB26F
:1087900048BF9D4004F00F0248BFED4302FA03F2C8
:1087A000C4F3812448BFADB292B2022C45EA020064
:1087B0000DD0032C0ED0012C06D000F057F902F09A
:1087C000E7F9FFF7D2FD49E700F048F9F7E700F0D5
:1087D00055F9F4E700F03FF9F1E7C4F3012215B3CE
:1087E000D207ECD5C4F3421314F010004FEA830310
:1087F000DBB21CBF0F20984004F00F0202FA03F214
:1088000018BFC043C4F3812414BF83B2034692B29D
:10881000022C43EA02000CD0032C0DD0012C05D011
:1088200000F076F9CBE7012AC9D9DBE700F068F957
:10883000C5E700F075F9C2E700F02EF9BFE7E7B22F
:10884000C4F3032445B1204600F038F93846FFF759
:1088500086FEB4E70C1400203846FFF789FE204658
:1088600000F038F9ABE75FFA84F9A9F1F003042BC3
:108870003CD8DFE803F003210D141D0035B1042FAF
:108880009DD8C4F3042000F02FF998E7052FF7E7EF
:10889000C4F30420002DE3D100F010F98FE725B1D7
:1088A000C4F3042000F003F989E700F0FDF886E73F
:1088B0001C4B5B785B0704D4C4F30420002DCFD09D
:1088C000EAE74DB1C4F30424204600F0F7F8032191
:1088D000204600F0CDFC72E7012000F0EBFC012FF8
:1088E0007FF66DAF022000F0E5FC68E73DB11FB1F7
:1088F0004846FFF795FD62E7C4F30420CCE75FB17B
:10890000B9F1390F0CBF4FF4FA50012003F097F979
:108910004846FFF7D3FD52E7C4F30420A0E7BDE8C3
:10892000F88300BF0C14002038B501880446407954
:1089300000F094F9054600F0FBF800F08BF82946AA
:108940002046BDE83840FFF71DBE0000037910B592
:108950000446B3B1FFF7A2FC68B900F0D5FB80B1C3
:10896000637973B1074B5B785B070AD5BDE81040AC
:10897000022000F09FBC2046FFF7D6FF2046FFF7FD
:108980006AFC10BD0C14002008B5002002F02AF982
:10899000002002F043F900F0EDFB00F033FC01F0A1
:1089A00015FBBDE8084001F0F5BA08B500F098FBEA
:1089B000BDE80840FFF7E8BF08B500F0C5FBBDE81B
:1089C0000840FFF7F2BFC0F30333062BC2B213D047
:1089D00094BF0E33063303F00F03012B10D8F02A97
:1089E00010D004D8E72A8CBF002001207047F42A59
:1089F00014BF002001207047E72A03D9F12AF7E7C6
:108A0000002070470120704708B50346007930B157
:108A1000188800F017F9BDE80840FFF7D4BF08BD7B
:108A200082B002AB03E9030002B0704782B002AB30
:108A300003E9030002B07047704708B5FFF7FCFF79
:108A400008BD000008B5FFF7F8FF014B188008BD0E
:108A50007C0C00207047FFF7F5BF0000024B1B881D
:108A60001843FFF7EFBF00BF7C0C0020024B1B88B0
:108A70001840FFF7E7BF00BF7C0C0020024B1B88AB
:108A80005840FFF7DFBF00BF7C0C0020704708B5DF
:108A9000FFF7FCFF08BD000008B5FFF7F8FF014B2A
:108AA000188008BD7A0C00200020FFF7F5BF0123D5
:108AB00003FA00F080B2FFF7EFBF0000012303FAD2
:108AC00000F0034B1B88184380B2FFF7E5BF00BFDF
:108AD0007A0C0020034A01238340108820EA030017
:108AE000FFF7DABF7A0C0020012303FA00F0034BF2
:108AF0001B88584080B2FFF7CFBF00BF7A0C002020
:108B0000024B1B881843FFF7C7BF00BF7A0C002039
:108B1000024B1B881840FFF7BFBF00BF7A0C002034
:108B2000024B1B885840FFF7B7BF00BF7A0C0020EC
:108B3000704701F0070330B5C908012402EB810238
:108B40009C40E4B2013A002112F8015F20FA01F3DF
:108B500043F300036B40234001315D40042915704D
:108B6000F2D130BD10B5002200F00704C00801EBBF
:108B7000800110468B5CE34003F001039340013217
:108B80001843042AC0B2F5D110BD000017B4ADF8E7
:108B90000400C0F3072005280C4610D89DF80430C7
:108BA000142B0CD800EB4000C0EBC0000344064A75
:108BB00099B2204603B05DF8044BFFF7BABF03B08B
:108BC0005DF8044B704700BF390C002082B0ADF84F
:108BD0000400C0F3072005280DD89DF80430142B9D
:108BE00009D800EB4000C0EBC0001844034980B234
:108BF00002B0FFF7B7BF002002B07047390C002069
:108C00000E4B73B51D880E4BADF804001B881D4339
:108C1000ADB20F2445FA04F3DB0705D4013CF9D2C9
:108C20000026304602B070BDE6B20199304600F031
:108C3000CAFD80B20128F1D0F3E700BF7A0C002012
:108C40007C0C002007B5ADF804000198FFF7D8FFB1
:108C5000019903B05DF804EB00F0B5BD13B5104BFE
:108C6000ADF804101B782BB1019802B0BDE810409C
:108C7000FFF7E8BF70B10198FFF7C2FF0446014655
:108C80000198FFF783FF0199204602B0BDE810402C
:108C900000F099BD0198FFF799FF0446F3E700BF84
:108CA000380C0020F8B50C4B0C4E1C780C4D33786A
:108CB000A34200D1F8BD05EBC40335F834005F884A
:108CC0009A88D98840EA074042EA01410134FFF717
:108CD000ADFE04F00704EAE77E0C00207F0C0020C4
:108CE000800C0020064B10B418885C889A88D988BC
:108CF00040EA044042EA01415DF8044BFFF796BEAA
:108D0000C00C00201B48F8B583790F2B0AD8437993
:108D100043B1194B194A1B78157806884788184CB7
:108D2000AB4200D1F8BD04EBC3011AB20979E1B13D
:108D300034F83220B24218D104EBC3014A79A2B907
:108D40004A88D21B92B2C72A0FD88379012262F3D4
:108D5000071383718B79074862F307138B71FFF751
:108D6000F5FDBDE8F840FFF79DBF013303F00703B1
:108D7000D6E700BFC00C00207E0C00207F0C002036
:108D8000800C0020F0B50D4B0D4C1B7826780D4C57
:108D9000B34201D10020F0BD04EBC3056F788F42D0
:108DA00006D114F83370874202D16D79954203D110
:108DB000013303F00703EBE70120ECE77E0C002012
:108DC0007F0C0020800C00202DE9FF478A4DE946EA
:108DD000044601460622484604F05AFD2B7994F8D1
:108DE000008061786779B4F802A02279C3B9002ABB
:108DF00000F0C780002F00F0F6802046FFF704FE49
:108E0000002800F0F08008222146284604F040FDAA
:108E10002846FFF7F3FAFFF775FFFFF763FFB0E0AF
:108E20006B886E79AAEB03039BB2002E00F0AB8037
:108E3000C72B00F28480002A00F0A380AB79288839
:108E400022880F2B4ED8904211D1002F45D10122FC
:108E500062F30713AB71FFF745FF2846FFF776FD76
:108E6000AB79A3710025284604B0BDE8F087A7BB05
:108E70003A464046FFF786FF4046FFF783FF054628
:108E80000028EFD10098FFF7DDFEC0F30332032A7C
:108E9000C3B208D8012A10D910F4706F12D0A27989
:108EA0000F2A0FD8DFE7063202F00F02012A0ED98F
:108EB0002046FFF74BFD3546D5E710F4706F01D023
:108EC000002BD0D02033DBB2072BCCD9F0E7EF2B2F
:108ED000C9D90F33DBB2022BF7E7AB7943F00103BB
:108EE000AB71BFE790420AD14FB92046A371FFF79B
:108EF0002DFD08222146284604F0CAFC8DE72046B5
:108F0000FFF782FD00286ED0002F6CD0AB791F2BAD
:108F10000FD92A88ADF808202A798DF80C2002A8EC
:108F20000022ADF80AA08DF80D208DF80E30FFF765
:108F30000DFD08222146304804F0AAFC6BE7AB790E
:108F40000F2B0ED899E80300FFF76AFD2846FFF7BC
:108F5000FDFC08220021284604F092FCFFF7C2FE27
:108F600080E772B1298822889142C8D1002FC6D1EA
:108F70002046A371FFF7EAFC08223946284604F090
:108F80007FFC01256FE7C72B31D8002AF9D057B3F2
:108F90002A8823889A421DD1AB79DA0714D40F2B83
:108FA00012D9A37103F0F003F02B06D0A379C3F319
:108FB0000312013262F30713A3712046FFF7C6FCC8
:108FC0000D480822214697E7082221460A4804F066
:108FD0005FFCD6E72046FFF717FD0028A9D1AB7943
:108FE00043F00103AB712046FFF7B0FCC9E799E8F5
:108FF0000300FFF715FDACE7C00C0020F0B585B00D
:109000006C4684E803002046FFF7DEFE284F294D1A
:10901000064668B19DF804301BB194E80300FFF7E1
:1090200005FD254C28783B78834226D105B0F0BD5C
:1090300094E8030002AB83E803009DF8041038783D
:109040002A780029EDD0441C04F0070494420AD089
:109050001946194B082203EBC00004F019FC3C70C0
:10906000FFF720FEDDE7FFF7A7FC08223146134893
:109070003E702E7004F004FCD3E704EBC000FFF751
:10908000A3FE0028D2D02B7834F8330004EBC303BE
:109090005E889A88D98840EA064042EA0141FFF793
:1090A000C5FC2B78013303F007032B70BAE700BF30
:1090B0007F0C00207E0C0020800C0020C00C0020C3
:1090C000024B0146186801F049BE00BF000C0020A9
:1090D000024B0146186801F05BBE00BF000C002087
:1090E000014B186801F06EBE000C0020014B18788F
:1090F000C0087047E80C0020024B187800F0070009
:10910000704700BFE80C0020034B187810F00700F0
:1091100018BF0120704700BFE80C0020014B1878F1
:10912000704700BF0C0D0020024B1A7810431870D6
:10913000704700BF0C0D0020024A137823EA000399
:10914000137070470C0D0020014B00221A707047FD
:109150000C0D0020024B1A7810431870704700BFA6
:109160000B0D0020024A137823EA000313707047A6
:109170000B0D0020014B00221A7070470B0D0020D0
:10918000704708B5FFF7FCFF08BD000008B5054AA9
:109190001378034204D023EA00001070FFF7F1FFB8
:1091A00008BD00BFE90C0020704708B5FFF7FCFFC1
:1091B00008BD000010B505490B7830EA030403D060
:1091C00003430B70FFF7F1FF10BD00BFEA0C002056
:1091D00008B5054A1378034204D023EA0000107052
:1091E000FFF7E3FF08BD00BFEA0C002008B5044B01
:1091F0001A781AB100201870FFF7D7FF08BD00BF1A
:10920000EA0C002010B5124B124A1B781278124C4F
:109210001343124A20681278037032B1134303706B
:1092200001F018FD08B1FFF7E1FF24680C49202286
:10923000204604F015FB48B121460948202204F0DD
:1092400027FB2046BDE8104001F0AABC10BD00BFBE
:109250000C0D00200B0D0020000C0020EA0C00205B
:10926000C80C0020704708B5FFF7FCFF08BD0000E0
:10927000094A5278520710B50AD5084C41EAC00194
:109280002170FFF71BFC2078C008FFF7ECFF10BD32
:10929000BDE81040FFF712BC0C140020E80C0020C1
:1092A00008B5034B00201870FFF7DDFF08BD00BFB5
:1092B000E80C002008B50A4A137823EA0000107071
:1092C00042070CD198420AD0064B5B785B0706D563
:1092D000C008FFF7FFFBBDE80840FFF7E1BF08BD8E
:1092E000E80C00200C140020094A08B55378C3F399
:1092F000800181420AD060F382035370108800F02D
:1093000038F8BDE808400220FFF7D4BF08BD00BF11
:109310000C140020044B5878C0F3800080F001004A
:1093200000F00100FFF7E0BF0C1400200120FFF760
:10933000DBBF0020FFF7D8BF08B500F0C9FFBDE8CC
:1093400008404FF6FF71002000F0A4BF08B50020D0
:1093500000F039FF4FF6E663C31A5842584108BD82
:10936000022000F021BF032000F01EBF042000F007
:109370002ABF0146042000F08DBF01460F2000F0F7
:1093800097BF0146132000F093BF0020FFF7F9BFFD
:1093900008B50020FFF7F1FFFFF7F7FF08BD000059
:1093A00013B500F095FF4FF6E661002000F072FF64
:1093B0000021022000F060FF0021032000F05CFF8C
:1093C0001A4B00244FF4A05104201C8000F062FFCF
:1093D0002146062000F050FFFF21072000F04CFF3F
:1093E0002146082000F064FF2146242000F044FFBD
:1093F0002146172000F040FF21460C2000F03CFFE2
:1094000021460D2000F038FF00230022CDE9002383
:1094100068460822182100F015FF2146202000F0A0
:1094200047FFFFF7B5FF02B010BD00BF7C0C002066
:10943000FFF7B6BF01460E2000F01EBF73B50C4DFE
:1094400001F0B0FD2B88834204460ED00026ADF813
:10945000006001F0A7FDADF80460ADF8020002ABBA
:1094600013E90300FEF7AAFF2C8002B070BD00BF15
:109470000E0D002008B501F05FFD024B1860024B95
:10948000186008BD2C0D0020280D00207047704783
:1094900008B5FFF7FCFF08BD704708B5FFF7FCFFF4
:1094A00008BD01207047000008B5054800F080FAAB
:1094B00000F00CFFFFF7EAFFFFF7EAFF08BD00BF6F
:1094C000A99900080120704708B5FFF7FBFF08BD08
:1094D0007047704708B5FFF7FBFFFFF7FAFF08BDBD
:1094E00008B500F087FABDE80840FEF73DBF000070
:1094F00008B501F01FFD00F051FBFFF7F1FF054B30
:109500001A7842F080021A701888FFF732FFFFF7CE
:10951000C4FF08BD0C1400202DE9F04F85B0FFF703
:10952000C0FF40B9FFF78AFF00F078FD05B0BDE845
:10953000F04FFEF72DBF2C4F00F04AFB3E460024B3
:10954000E0B256F8045B00F07FFA052C49D0854262
:1095500004F10104F4D0254B1B789B0701D500F0E2
:1095600079FAFFF7B1FF002600904FF0010B5FFA88
:1095700086F9484600F068FA57F8043B98420446DA
:1095800029D0434000254FF001080DF1080A13EAE5
:10959000080F18D0009AB2B101938DF808508DF8D9
:1095A000099001F0FFFC14EA080F14BF012100210B
:1095B000ADF80A008DF80CB08DF80D109AE8030094
:1095C000FEF7FCFE019B0135EDB2152D4FEA480870
:1095D000DDD147F8044C0136062EC8D1FFF74AFF0B
:1095E000A2E78542B7D19DE7100D0020300D002085
:1095F00038B500F0F3F8B0F5A44F044643D2B0F507
:10960000A04F80F0AE80DF2816D8CC2800F28C80E6
:10961000A7280AD8A42879D8012804D0031F9BB210
:10962000A12B28BF0024204638BDA0F1A8039BB27F
:109630001A2B71D90024F6E7B0F5804F19D2B0F596
:10964000005F80F09D80E728EDD9A0F580739BB284
:10965000B3F5F85FEED2C0F3072000F043F90546FA
:10966000E0B200F0BBF82D0205F4F85540EA05041D
:1096700050E0C0B200F0B2F804F47064204340F44B
:10968000204084B2CFE7B0F5A54F22D245F25F2348
:10969000984253D845F23F2398420FD845F21F23F2
:1096A000984244D800F003040123C0F38502A3408C
:1096B00043EA421343F40D439CB2B4E700F00304C1
:1096C0000123C0F38202A34043EA421343F40C4354
:1096D000F2E745F2BF2398420AD845F29F23984209
:1096E00000F01F0035D84AF2F40343EA00249AE759
:1096F000A0F5A543403B9BB21F2B9BD8040204F46A
:10970000F85444F4204444F0F0048CE7A0F124041D
:1097100044F48044A4B286E75834214BE4B233F8D1
:10972000144044F488447EE740F4A044F2E700F09B
:109730001F044AF2F10343EA042474E700F003042F
:109740000123C0F38202A34043EA421343F40A43D5
:10975000B2E700F0C7F8040204F4F85444F40054EB
:1097600061E700F01F0000F0BDF8C306C4F3431426
:1097700048BF0001240200B2044344F41044C9E786
:10978000C0F3042000F0AEF80546E0B200F026F881
:109790002D0205F4F855054345F40055ACB242E7F7
:1097A000DADA000882B0ADF80410C1F30721052908
:1097B00006D89DF80420142A02D802B0FEF7FABC9D
:1097C000002002B0704707B5ADF804100199FFF70B
:1097D000E9FF03B05DF804EBFFF70ABFE7284FD8B5
:1097E000DF2807D8312864D00ED8292857D02A2856
:1097F00066D07047A0F1E003072B41D8DFE803F003
:109800001540232831403C41392804D0822802D019
:1098100035283FD07047324B1A7892071FD15B78BA
:1098200013F0080F18BF292070472D4A1378D90765
:109830004DD4527812F0010F22D013F0100F14BF44
:109840000020E3207047264B1B7813F0040FF3E74A
:10985000234A137859073CD45278D207EDD5E0203B
:1098600070471F4B5A7891070AD51B7813F0100FD9
:1098700014BF0020E7207047194B1B781A07F5D456
:109880007047174A1378190725D452789107EDD5F8
:10989000E4207047124B1B7813F0200FC2E7104BE7
:1098A0001A78920619D45B7813F0080F18BF392084
:1098B00070470B4B1B7813F0400F18BF2A207047DE
:1098C000074B1B7813F0400F18BF31207047392029
:1098D0007047E2207047E62070473520D0E700BF90
:1098E0000C14002010B52F4C21784B0713D500F035
:1098F0001402A2F1040C00F01803DCF1000242EBA8
:109900000C02A3F1080CDCF1000343EB0C039A42B8
:1099100018BF80F00C000B0713D500F01402A2F161
:10992000140C00F01803DCF1000242EB0C02A3F16E
:10993000180CDCF1000343EB0C039A4218BF80F0D3
:109940000C006478E30713D500F0110202F1FF3C2C
:1099500000F01803DCF1000242EB0C02A3F1080C4A
:10996000DCF1000343EB0C039A4218BF80F00900BE
:10997000A30711D500F0110200F01803A2F11104A1
:109980006242A3F1180C6241DCF1000343EB0C03CB
:109990009A4218BF80F00900CB0648BF00F0E700EC
:1099A00010BD00BF0C14002000207047002070473D
:1099B000014B1860704700BF040C0020FFF7BCBCCF
:1099C00008B500F005F940F6B83002F038F900F0BB
:1099D000FFF8002000F038F8C30705D5FFF7EEFFC9
:1099E000BDE8084001F01CBB08BD08B5FFF7E8FF63
:1099F00008BD000008B5FFF7A9FC08B9FFF718FD7E
:109A0000FFF7AEFC084B1870FFF7B0FC074B18804F
:109A1000FFF7EBFFFFF7A7FCFFF71DF8044B1888D3
:109A2000BDE80840FFF733B8300D00200C140020CB
:109A30007A0C0020704708B5FFF7FCFF08BD70479F
:109A400008B5FFF7FCFF08BD014B53F82000704735
:109A50002814002070474FF4346001F097BE00BF17
:109A600000BF00BF00BF00BF00BF00BF00BF00BFFE
:109A700000BF00BF00BF00BF00BF00BF00BF00BFEE
:109A800000BF00BF00BF00BF00BF00BF00BF7047E6
:109A900008B5FFF7E0FF08BD08B5302383F3118850
:109AA000012100F00F039940202220F00F0002F066
:109AB000BCFF002383F3118808BD000038B50C4DAE
:109AC000062455F8040B421C01D0FFF7E5FF013CCA
:109AD00014F0FF04F5D1074D152455F8040B431C71
:109AE00001D0FFF7D9FF013C14F0FF04F5D138BDD8
:109AF00064DB000810DB00082DE9F843DFF89880EC
:109B000058F821300746581C0E463ED0302282F3CA
:109B10001188012523F00F0903F00F0305FA03F460
:109B200021462A464846A4B202F07FFFA9F81A400F
:109B3000002484F31188FFF792FF1648152350F88C
:109B4000042B511C23D022F00F0102F00F020969EF
:109B500021FA02F212F0010F0CBF2A460022013B4B
:109B600013F0FF0344EA02044FEA4505E7D158F831
:109B70002600431C01D0FFF78FFF211E18BF0121D3
:109B80003046FFF785FF47F82640BDE8F8830022FE
:109B9000E5E700BF10DB000864DB000810B51824FF
:109BA000FFF78CFF22460021074803F069FE22469A
:109BB0000021064803F064FE062000F03BF8BDE8F3
:109BC0001040FFF738BF00BF2814002010140020F9
:109BD00070B586B018220021684603F051FE0024BB
:109BE000E1B268460134FFF787FF062CF8D10F4831
:109BF0001822694603F034FE002814BF012600260F
:109C000007D06C460FCC094D0FC594E8030085E8DA
:109C10000300074905483346062200F00DF80446C4
:109C2000FFF70EFF204606B070BD00BF10140020E5
:109C300028140020704700002DE9F041DFF858801B
:109C400007460E46144633B1012388F8003001F070
:109C500073F9104B186098F800501DB9002528467C
:109C6000BDE8F0810B4B186801F0A8F90428F5D97C
:109C7000A40022463946304603F0F2FD40B12246A8
:109C80003946304603F004FE002388F80030E6E74A
:109C90000546F9E7340D0020380D002008B501F025
:109CA0008FFCFFF725FCBDE8084001F09FBC08B51C
:109CB00001F0A2FCFFF730FCBDE8084001F0C0BC99
:109CC00008B501F0FDF801F078FCFFF7EDFBFFF7B8
:109CD000E5FFFFF7ECFFFFF7FDFBFAE700EB4003C2
:109CE000C3EB031300EB830083B200B2002807DA52
:109CF000803800B2002800DAFF3040F307207047B8
:109D000003F18000F9E70000164B1B78D90707D54F
:109D1000154B187840007F2820D808B3C0B2704790
:109D20009A0703D5104B18788000F4E75B0703D53A
:109D30000D4B1878C000EEE70C4B1B7863B10C4A52
:109D40000949127808789342F4D210FB03F0C0005E
:109D5000B0FBF2F080B2DEE70820DFE77F2070473B
:109D600001207047400D00200D0C00203F0D002009
:109D70000C0C0020144B1B78D90705D5134B187811
:109D80008008F8B1C0B270479A0703D50F4B187816
:109D90004008F6E75B0705D50C4B18787F28F0D90B
:109DA0007F2070470A4B1B7853B10A4A0749127843
:109DB000087893423CBF10FB03F0B0FBF2F0EDE7F4
:109DC0000120DFE701207047400D0020090C002032
:109DD0003E0D0020080C002008B5A0F1CD03122B89
:109DE00010D8DFE803F00A1013192E2E2E2E2E2E77
:109DF0002E2E1C21252B363C4100FFF785FF4042CB
:109E00001C4BD87008BDFFF77FFFF9E7FFF77CFF19
:109E10004042184B9870F5E7FFF776FFF9E7FFF738
:109E2000A9FF144B1871EDE7FFF7A4FF4042F8E7D4
:109E3000FFF7A0FF40420F4B5871E3E7FFF79AFF8F
:109E4000F9E70C4AD1385178012383400B43537012
:109E5000D8E7094A137843F001031370D2E7064AA2
:109E6000137843F00203F8E7034A137843F004033E
:109E7000F3E700BF410D0020400D002030B5414BFD
:109E8000CD2893F9035093F9024093F9041093F904
:109E9000052012D1002D01DA0022DA70D9789A78E3
:109EA0000A4351B20AB9384A11701A795B791343DF
:109EB0005AB20BB9354B1A7030BDCE2802D1002DE5
:109EC000EADCEBE7CF2804D1002CE7DA00229A7015
:109ED000E4E7D02802D1002CF8DCDFE7D92804D150
:109EE0000029DBDD00221A71D8E7DA2802D1002927
:109EF000D4DAF7E7DB2804D1002ACFDA00225A713E
:109F0000CCE7DC2802D1002AF8DCC7E7D1380E28DC
:109F1000C4D801A252F820F0559F0008559F0008B0
:109F2000559F0008559F0008559F0008559F000841
:109F3000559F0008559F00089D9E00089D9E0008A3
:109F40009D9E00089D9E0008639F00086F9F00086B
:109F5000799F00085A780121814022EA01025A7053
:109F60009CE70B490A7822F001020A7096E708493B
:109F70000A7822F00202F8E705490A7822F0040282
:109F8000F3E700BF410D00203F0D00203E0D0020F3
:109F9000400D002008B501F005F8094B9A78D978F2
:109FA0000A431CBF074A10801A795B791A431CBF09
:109FB000054B1880BDE80840014800F009BE00BF0D
:109FC000410D00203C0D00203A0D002008B506226E
:109FD0000548002103F054FC044A00231370044A8E
:109FE0001370044A137008BD410D00203F0D00207E
:109FF0003E0D0020400D002090F902305BB990F931
:10A00000033043B990F904302BB990F905000038BA
:10A0100018BF0120704701207047000037B5594C28
:10A0200006222146684603F033FC00239DF80320F6
:10A03000A370E370237163719DF8023013430AD05B
:10A04000514B188800F0B3FF50490B783BB3504A8E
:10A05000127890422DDC9DF804309DF805201343C2
:10A060000BD04C4B188800F0A2FF4B490B78002B0B
:10A070004ED04A4A1278904254DC4248694600F079
:10A08000B5FE18B93F48FFF7B7FF08B1FFF782FFE9
:10A09000062269463B4803F0FBFB03B030BD404A53
:10A0A000127802EB8202B0EB420FD4DD01330B7069
:10A0B00001E0FF2BFAD19DF902503DB1FFF724FEDC
:10A0C000002DD4BFFF2301234343A3709DF9035008
:10A0D0003DB1FFF719FE002DD4BFFF2301234343F9
:10A0E000E37094F902000028B5D094F90320002A07
:10A0F000B1D0FFF7F3FD002808BF0120A070104683
:10A10000FFF7ECFD08B1E070A5E70123E370A2E7DB
:10A11000244A127802EB8202B0EB420FADDD01332C
:10A120000B7001E0FF2BFAD19DF904503DB1FFF710
:10A1300021FE002DD4BFFF230123434323719DF94A
:10A1400005503DB1FFF716FE002DD4BFFF230123BC
:10A150004343637194F9040000288ED094F90520DC
:10A16000002A8AD0FFF7BAFD002808BF012020711D
:10A170001046FFF7B3FD08B160717EE701236371FC
:10A180007BE700BF410D00203C0D00203F0D00206B
:10A190000E0C00203A0D00203E0D00200A0C00207D
:10A1A0000F0C00200B0C002007B5002301460122F4
:10A1B0000DF107008DF8073000F08CF89DF80700CE
:10A1C00003B05DF804FB07B50023014602220DF140
:10A1D0000600ADF8063000F07DF8BDF8060003B0CB
:10A1E0005DF804FB07B50422014600230DEB0200D5
:10A1F000019300F06FF8019803B05DF804FB07B518
:10A2000001228DF8071001460DF1070000F067F8F4
:10A2100003B05DF804FB07B50222ADF80610014655
:10A220000DF1060000F05BF803B05DF804FB07B524
:10A230000422019101460DEB020000F050F803B03A
:10A240005DF804FBF8B5D31D23F0070300AFADEBB9
:10A25000030D0546144668460E4600F03BF82246BC
:10A260006946284603F0FCFA20B1224631462846CA
:10A2700000F035F8BD46F8BD38B50C460546FFF789
:10A2800093FFA04205D021462846BDE83840FFF79D
:10A29000B6BF38BD38B50C460546FFF794FFA0425F
:10A2A00005D021462846BDE83840FFF7B4BF38BD89
:10A2B00038B50C460546FFF795FFA04205D021466C
:10A2C0002846BDE83840FFF7B2BF38BD00F04CB9B2
:10A2D00000F03CB80B460146184600F051B80B465A
:10A2E0000146184600F0DAB808B5064B4FF4806214
:10A2F0000021184603F0C4FA4FF48162C0F800242C
:10A3000008BD00BF480D002010B5064C94F8043479
:10A3100033B900F0A7F910B1012084F8040410BD8E
:10A320000220FCE7480D002010B5074C94F80434D7
:10A330003BB100F0DBF918B1002384F804340120AC
:10A3400010BD0220FCE700BF480D002038B5FFF724
:10A35000DBFF044618B9FFF7E7FF204638BD00F0E1
:10A360008DF90546FFF7C0FF012C06D1FFF7DCFF92
:10A3700000280CBF002505F001052C46EDE7000084
:10A3800008B5034608469918B1F5806F05D8044909
:10A39000194403F07DFA012008BD0020FCE700BF4E
:10A3A000480D0020F8B506460F4615460024AC427D
:10A3B00001D10120F8BD07EB840106EB840000F019
:10A3C000E1F90028F6D00134F1E7F8B506460F466A
:10A3D00015460024AC4201D10120F8BD57F82410E5
:10A3E00006EB840000F06AF90028F6D00134F1E7AA
:10A3F00073B500F043F9044628B3FFF785FF16490B
:10A40000154E05464FF480720020FFF7DEFF04462C
:10A4100088B10FA3D3E900234FF48061304600F0E8
:10A42000C3F90222CDE9000169464FF48060FFF7CD
:10A43000CCFF4400E4B2012D01D1FFF775FF4FF4CA
:10A440008163C6F80034204602B070BDAFF30080CF
:10A4500025232284E49CF2CB480D0020044BD3F842
:10A460000034B3F5006F01D3FFF7C2BF012070477E
:10A47000480D002010B5084C0146D4F8000400F047
:10A480001DF940B1D4F800340433C4F80034BDE8F9
:10A490001040FFF7E3BF10BD480D00208318B3F54F
:10A4A000806F2DE9F74F06460F46154621D82C4CF4
:10A4B00004442146384603F0D3F900284ED02A46FA
:10A4C0003946204603F0E4F9FFF71EFF804670B1DD
:10A4D0004FF0000A4FF0000B85B9FFF7BFFF0446AD
:10A4E000B8F1010F06D1FFF71FFF10B102E0FFF72F
:10A4F0001BFF0024204603B0BDE8F08F052DA946C0
:10A50000C6F3024328BF4FF0050943EAC903CDE96A
:10A5100000AB4A468DF800303946330A0DF103008E
:10A520008DF801308DF8026003F0B2F90098FFF762
:10A53000A1FF012804460CD1012D04D1A5EB09058A
:10A540004E444F44C8E70198FFF794FF01280446A2
:10A55000F4D014F0FD0F18BF0024C1E70124C9E7AF
:10A56000480D0020000000002DE9FF41FFF7BCFE70
:10A5700000F0C4F830B9FFF7B7FE0024204604B05D
:10A58000BDE8F0813649364E4FF480720020FFF767
:10A5900009FF002855D030A3D3E900234FF4806190
:10A5A000304600F001F9022205460C464FF4806067
:10A5B00002A9FFF7F7FEDDE902239C4208BF95429E
:10A5C00001D0FFF791FE4FF4816401A9204600F00D
:10A5D000D9F858B3019B43B313F0C00F04F104073B
:10A5E0000293D9B235D103F47F420D04C3F307437C
:10A5F000134305F4E0251D4305EBD103B3F5806F4C
:10A600004FEAD10825D811F0300F1DD003A93846E4
:10A6100000F0B8F8E8B1083442460DF10B017019AA
:10A6200003F036F9B4F5006FCFD30120C6F800442B
:10A6300060B9FFF7DDFE044600289FD1FFF754FE06
:10A640009CE7FFF751FE96E73C46E5E7FFF706FF7C
:10A65000F1E73C460020E9E725232284E49CF2CB85
:10A66000480D002008B50021034801F067FCB0FA4E
:10A6700080F0400908BD00BFC8140020F8B50D4F98
:10A680000D4E002101253B688B4201D82846F8BDBC
:10A69000306803684C1C21465B6998470128306884
:10A6A00088BF002501F0F2FB012888BF0025214664
:10A6B000E9E700BF100C002050110020094B73B5D2
:10A6C0001D68094B064618680368C943DC68019198
:10A6D00001AB04227119A047B0FA80F0400902B022
:10A6E00070BD00BF140C00205011002008B50248B6
:10A6F00001F032FC012008BDC81400202DE9F04112
:10A700001A4D1B4B2B60FFF7F1FF286803685B684D
:10A710009847184BB3F8226A00240746B602A046B1
:10A72000BB68013BA34210D901342868214601F0DF
:10A73000D8FB8044B8F5006FF2D30F4B28681C603B
:10A74000012101F0C1FB0D4B18600B4B1A684FF64D
:10A75000FF739A4203D0094B1B68B34202D30848E7
:10A7600001F006F80120BDE8F08100BF5011002083
:10A77000C81400200070FF1F100C0020140C0020D3
:10A780007CDB0008064B10B50C461968054B0144EC
:10A79000186801F0B3FB0368DB432360012010BDA0
:10A7A000140C0020501100202DE9F0414FF0120C44
:10A7B00046180546194610460027B54201D3BDE8A4
:10A7C000F08115F8013B83EA0002A2FB0C834801EB
:10A7D000540114EB080440EAD2600CFB013343EB54
:10A7E00000034FEAC218A4184FEAC11041EB03035B
:10A7F0004FEA022E40EA526014EB08044FEA0121AE
:10A8000043EB000341EA126114EB0E0443EB010336
:10A810000EEB03013819D0E738B505464879002812
:10A8200000F0DC80A5F5E045ABB2222B00F2BB8046
:10A83000FEF79CFD6A4C013D2080212D12D8DFE8F7
:10A8400005F04DBD551B1F59235D692FB5336D377D
:10A8500071973B759F417B8327612B65477F8EA94D
:10A86000B31651C5237843F00103237095E0637854
:10A8700043F00803637090E0237843F00203F4E7A9
:10A88000237843F00403F0E7237843F00803ECE770
:10A89000637843F00103EDE7637843F00203E9E7EF
:10A8A000237843F01003E0E7237843F02003DCE74C
:10A8B000237843F04003D8E7FEF77EF8237843F08F
:10A8C0008003D2E7237823F00C0343F00C03CCE79A
:10A8D000637823F0030343F00303CBE7237823F0EB
:10A8E0000103C2E7637823F00803C3E7237823F06A
:10A8F0000203BAE7237823F00403B6E7237823F0B2
:10A900000803B2E7637823F00103B3E7637823F029
:10A910000203AFE7237823F01003A6E7237823F0A0
:10A920002003A2E7237823F040039EE7FEF744F8D4
:10A93000237823F0800398E7237823F00C0394E72F
:10A94000637823F0030395E72378C3F3800282F052
:10A950000102D2B262F3820362F3C30385E7637834
:10A96000DA4302F0010262F3000362F3410381E77C
:10A970002378C3F3801282F0010262F3861374E736
:10A98000FEF71AF82378C3F3C01282F0010262F3D3
:10A99000C7136AE70120FEF74DFD2088FEF7E9FCAA
:10A9A000FEF70AF8002038BD0020F4E72378C3F34F
:10A9B000001282F0010262F3041356E72378C3F316
:10A9C000000282F0010262F300034EE76378C3F3F2
:10A9D000C00282F0010262F3C3034BE70120E2E709
:10A9E0000C14002047F61643984210B50C461BD1B4
:10A9F000FEF794FB62790D4B72B100F0AA000028BB
:10AA000013BF01220022292035201A70FEF758FBBF
:10AA1000FEF7F8FB002010BD1B78002B0CBF29208F
:10AA20003520FEF755FBF3E70120F4E75411002031
:10AA3000F8B5144642799DF818701D46284B92B11E
:10AA40001C7000F0AFFA274B188004F12003DBB232
:10AA5000072B44D804F007040120A040C0B2BDE891
:10AA6000F840FDF77CBD1E78A6422ED11D4B1888FC
:10AA700000F09DFAC72828D8AE4205F1200415D071
:10AA800006F12003DBB2072B06D806F007060120EB
:10AA9000B040C0B2FDF76CFDE3B2072B06D805F05D
:10AAA000070301209840C0B2FDF759FD3846E4B2D3
:10AAB000FDF74DFD072C12D805F007050120A84031
:10AAC000BDE8F840C0B2FDF753BD04F12003DBB28E
:10AAD000072B04D804F007040120A040F0E7F8BDDC
:10AAE00058110020561100200346A3F5F843183BE7
:10AAF00007B50846062B3BD8DFE803F0171E041005
:10AB0000252C330026230093E1231A4647F61A41E9
:10AB1000FFF78EFF002003B05DF804FB27230093AE
:10AB2000E5231A4647F61B41F2E726230093E0226D
:10AB3000E12347F61841EBE727230093E422E523BE
:10AB400047F61941E4E726230093E222E12347F682
:10AB50001C41DDE727230093E622E52347F61D414C
:10AB6000D6E728230093E522012347F61E41CFE7CD
:10AB70004B7913B1024B00221A700120CBE700BFC2
:10AB800058110020014B1860704700BF6011002071
:10AB9000024B186808B1036818477047601100201D
:10ABA000084B1B686BB1084A127842B1074A92F908
:10ABB0000020002ABFBF02784270062202705B6844
:10ABC0001847704760110020180C00200C1400205A
:10ABD000034A12681AB1022101709368184770473E
:10ABE000601100200B4B07B51A8882420ED01880E6
:10ABF000094B1B6853B103228DF80500000A8DF83C
:10AC00000600DB688DF8042001A8984703B05DF8C2
:10AC100004FB00BF5C110020601100200B4B07B546
:10AC20001A8882420FD01880094B1B685BB104223E
:10AC30008DF80500000A8DF80600DB688DF8042009
:10AC40000DEB0200984703B05DF804FB5A11002099
:10AC5000601100200C4B1B78821C9BB10B4B93F9AD
:10AC60000030002BB4BF1E230623013BDBB20020C3
:10AC700012F8011B09B10130C0B2013BDBB2FF2B5E
:10AC8000F6D170470623F0E7180C00200C140020C2
:10AC9000F1B1114B1B789BB1104B93F90030002B95
:10ACA0000EDAEF294FEAD10212D8104401F0070161
:10ACB000827801238B40134214BF0120002070478B
:10ACC000431C073013F8012F8A4203D08342F9D185
:10ACD0000020704701207047180C00200C14002041
:10ACE00030B50022441C4FF0FF3314F8015F8D4251
:10ACF0000BD0B3F1FF3F01D105B953B20132062A9F
:10AD0000F3D15A1C01D01844817030BD10B5431CDA
:10AD10000022073013F8014F8C4208BF1A7083429B
:10AD2000F8D110BDEF294FEAD10307D8184401F03C
:10AD30000701827801238B40134383707047EF290A
:10AD40004FEAD10308D8184401F0070183780122A3
:10AD50008A4023EA020383707047000010B40A4C53
:10AD6000247803460A4644B1084C94F90040002C6C
:10AD700003DA5DF8044BFFF7D5BF5DF8044B1146CD
:10AD80001846FFF7ADBF00BF180C00200C140020C0
:10AD900010B40A4C247803460A4644B1084C94F98E
:10ADA0000040002C03DA5DF8044BFFF7C8BF5DF8E4
:10ADB000044B11461846FFF7A9BF00BF180C00202E
:10ADC0000C140020074B1B78023043B1064B93F95B
:10ADD0000030002B03DA1E22002102F051BD0622B2
:10ADE000FAE700BF180C00200C14002042784B78C2
:10ADF0009A421DD190F902301BB191F902209A427A
:10AE000016D190F903301BB191F903209A420FD16A
:10AE100090F905301BB191F905209A4208D190F9BB
:10AE2000040030B191F90430181A18BF012070479E
:10AE300001207047704708B5FFF7FCFF08BD000010
:10AE400008B50130024BC0B21870FFF7F4FF08BD1F
:10AE50006411002008B5034B03201870FFF7EBFFC7
:10AE600008BD00BF64110020FFF7EABF08B5034B1F
:10AE700001201870FFF7DFFF08BD00BF641100203C
:10AE8000FFF7F4BF70477047704708B5FFF7FCFF46
:10AE900008BD704708B5FFF7FCFF08BD10B5FFF708
:10AEA000F1FFFEF795FEFFF7EEFF0024E0B2FEF79C
:10AEB000CBFD18B90134062CF8D110BD0120FCE7F8
:10AEC00008B500F0BDFFBDE8084000F039BC08B58A
:10AED000FDF72DFABDE8084040F2A46000F0AFBED7
:10AEE00008B5FEF731F9FEF745F9FEF7F9F8FFF777
:10AEF0006DF80020FFF776FE0020FFF78FFEBDE81B
:10AF00000840FDF71BBA000008B5302383F3118811
:10AF100000F0A7FF044B054A186000231360044AA1
:10AF2000136083F3118808BD701100206C1100209C
:10AF300068110020FFF7E8BF70B5302383F3118854
:10AF4000124D00F08EFF12492B680A68C41AA24203
:10AF5000104A0AD9A3F58333E03B10682B600E4BEF
:10AF600004F583340344E03413600C601668002158
:10AF700081F3118809480A4A4FF47A750023E4FBEB
:10AF80000501FDF7E9F8304470BD00BF70110020E5
:10AF90006C1100206811002088598F029F860100E3
:10AFA000A086010008B5FFF7C7FF80B208BD10B545
:10AFB0000446FFF7C1FF001B80B210BD10B5044668
:10AFC000FFF7BAFF001B10BDBFF34F8F0549064BBB
:10AFD000CA6802F4E0621343CB60BFF34F8F00BF37
:10AFE000FDE700BF00ED00E00400FA05014B024A56
:10AFF0001A607047FCFF0120EFBEADDE034B1868FE
:10B00000034BC31A58425841704700BFFCFF012050
:10B01000EFBEADDE014B00221A607047FCFF01203D
:10B0200008B5FFF7E3FFFFF7CFFF08B5FFF7CCFF49
:10B0300008B5FFF7E3FF80B3FFF7ECFF72B6BFF38D
:10B040004F8FBFF36F8F154B5A6A22F480325A62CA
:10B05000D3F8942022F00102C3F894204FF0E022AC
:10B06000002313614FF0FF31936153619A0002F1A5
:10B07000604202F561420133082BC2F88010C2F829
:10B080008011F3D1002383F31488054B1A6882F3EF
:10B09000088862B65B689847FEE708BD00ED00E0EF
:10B0A0000000FF1F7047302383F31188002383F3D0
:10B0B0001188704770B50A4C0E461946234615464E
:10B0C000002243F8042FB0F84A2045EA062000F099
:10B0D000B9FA20606068002818BF204670BD00BF24
:10B0E0007411002090F84A10074A0229137807D1FA
:10B0F000012B01D0062B05D1044B52781A707047F2
:10B10000024A1370704700BF7C1100200812002013
:10B1100070B50446064803680D460BB100F0D6FB37
:10B120002B462146034A0248BDE8704000F0C4BBEC
:10B13000F011002039B1000838B50C46302383F3F4
:10B1400011880B78042B03D0002383F3118838BDBA
:10B15000124B1B78DB09F7D1114D2B78002BF3D064
:10B16000104B1B78002BEFD00B899B0705D40E4AA0
:10B1700008230121204600F096FF28780B4BA0FB06
:10B1800003034FF47A72002300F2E7300021FCF74A
:10B19000E3FF21468000FFF7BBFFD5E70C1400203A
:10B1A0000A120020180C0020CE110020A0860100F9
:10B1B00038B590F8443003F07F02212A044673D159
:10B1C00013F0800F90F845302DD0022B27D0032BA1
:10B1D0001DD0012B68D190F848304BB1012B90F86D
:10B1E00046200AD03E4BA3631A7094F84A3009E017
:10B1F0003C4A82630822E26306E0022AF2D13A4B1B
:10B2000083630623E36300232364012038BDB0F881
:10B210004830002B48D1354A82630122EBE7344B9A
:10B2200083630123EEE70A2B35D00B2B0BD0092BC0
:10B230003AD190F84830012B36D82E4B8363022345
:10B24000C3632D4BE0E7B0F8483003BB90F846509D
:10B25000264B002D14BF012200221A7017D1244B57
:10B260001A78A2B1302282F311881878234BA0FB00
:10B2700003034FF47A72002300F2E7300021FCF759
:10B280006BFF21468000FFF743FF85F31188002301
:10B29000A363E363B8E71A49154B097890F8472090
:10B2A0001A70CD09F3D1DCE7B4F8442040F2816391
:10B2B0009A4201D00020A9E794F84920616894F8E7
:10B2C00048304D6894F8471043EA0223204694F82A
:10B2D0004620A8470028EDD04368A363036891E7A0
:10B2E000A8110020CE110020C8110020180C002049
:10B2F0000A1200207C110020E5B00008A0860100A1
:10B300000C14002010B5064A064C117824784B1C0A
:10B3100003F00F039C421EBF034C1370605410BD1A
:10B3200050140020511400204014002010B5044691
:10B330000846052921D8DFE801F01A20031A1A1E51
:10B34000302383F311880D4A2046012100F05BFE73
:10B350000B4A0221204600F056FE002383F3118899
:10B36000084B1B7813B10520FFF7CCFF0220BDE886
:10B370001040FFF7C7BF0520F9E710BDFCDB000850
:10B38000D8DB00087E11002008B5102204480021F7
:10B3900002F076FA034A00231370034A137008BDC3
:10B3A000401400205014002051140020F8B5284DFE
:10B3B000284C2E7823780022B3422FD102B123707B
:10B3C000F8BD2370244B1870244B93F84F10081EBF
:10B3D00018BF0120FFF73EFDEBE723701E4B002254
:10B3E0001A70FFF77DFD1D4B93F84F10081E18BF14
:10B3F0000120FFF739FDDCE72370184B93F84F105D
:10B40000081E18BF0120FFF71BFDD2E700212370A3
:10B410000846F8E72370FFF729FDCAE710481946E8
:10B420000122415C013303F00F0310460529C3D804
:10B4300001A757F821F000BF15B40008B9B3000800
:10B44000F9B300080DB40008C3B30008DBB300086B
:10B4500050140020511400207E110020EC14002014
:10B4600040140020426D936B23F4002310B59363C6
:10B47000044600F09FFD41F2883000F0E0FB0649F1
:10B48000204600F084FD626D936B43F400239363C8
:10B49000024B00221A6010BDC8DB0008F01100202A
:10B4A000426D936B23F4002310B59363044600F0C0
:10B4B00081FD0549204600F06AFD626D936B43F4FF
:10B4C0000023936310BD00BFC8DB0008014B187850
:10B4D000704700BF0812002070B5302304460D46A7
:10B4E000164683F311880F480378042B03D00023FA
:10B4F00083F3118870BD02890123A34013420AD04F
:10B5000000EB84004FF47A71C36858690C3000F086
:10B51000A3FB0130EBD0034833462A46214600F016
:10B52000C2FDE4E7EC14002010B50D4B1B78044677
:10B5300053B9014608220120FFF7CEFF2022214601
:10B54000084802F0A5F910BD074B93F90030002B15
:10B550000146B5BF2022082202200120ECE700BFEF
:10B56000180C0020CE1100200C14002010B501464C
:10B57000044606220220FFF7AFFF062221460248BA
:10B5800002F086F910BD00BFC81100200146032259
:10B590000220FFF7A1BFFFF74BBD7047704708B50A
:10B5A000FFF7F9FF01F0C8FFFFF7F7FF08BD08B587
:10B5B00002F004F8FFF7F2FF08BDFFF761BC0000DE
:10B5C00008B5FFF7E1FE0648FFF74CFF054B064ABA
:10B5D0001A6041F28830BDE8084000F030BB00BF7F
:10B5E000EC1400200C1200201C0C0020014B1868E9
:10B5F000FFF7C8BA0C12002010B5104CFFF7D6FEAA
:10B600002378052B19D12378052B05D0FDF7FAFDFA
:10B61000BDE81040FEF7BEBCFFF759FCB4F84C3053
:10B620009B07F0D5FFF73AFC0028ECD0034800F068
:10B630004CFD0248FFF734FFE5E710BDEC14002095
:10B6400070470000020A032A0FD007D8012A21D030
:10B65000022A07D1144A3B201A607047212A0DD0D4
:10B66000222A11D000200246F6E7C0B20228F9D8FB
:10B670000E4A0F4952F82020085CEDE769B1012914
:10B68000F0D10C4A0920E7E751B10129EAD10A4A71
:10B69000B620E1E7094A1220DEE7094A0920DBE784
:10B6A000084A4420D8E700BF66DC000824DC000814
:10B6B00020DC000891DC0008B3DC0008A1DC0008F5
:10B6C00078DC000869DD0008024B034A1A60034A6F
:10B6D0005A607047541400205015002000000220CA
:10B6E00070477047FEE7000070B5144C082560688D
:10B6F0002368A268043B01468A4219D8D31C1B1A4E
:10B70000C11E23F00303914288BF00231844E3685D
:10B71000DA1C121AC11E22F00302994288BF0022CD
:10B72000002102F0ADF8013D04F11004DFD170BD3D
:10B7300053F8046F41F8046BDEE700BFB0DD00088A
:10B7400038B5084C0123002523706560FFF7BCFF66
:10B750000549064800F0ECF90223237085F31188AF
:10B7600038BD00BF6014002030DE000868140020DF
:10B7700072B6034BD865034B03221A70FEE700BF75
:10B78000681400206014002000F0D6B8034A516805
:10B7900053685B1A9842FBD8704700BF001000E066
:10B7A000024AD36A0343D362704700BF6814002083
:10B7B00010B503689C68A2420CD85C688A600B6074
:10B7C0004C60216059609968891A99604FF0FF3385
:10B7D000836010BD1B68121BECE7022938BF0221F1
:10B7E00070B504460D460226601900F04BFB00F0D0
:10B7F00038FB041BA54203D8751C2E460446F3E70C
:10B80000022E04D9BDE870400120FFF7C9BF70BD0A
:10B81000F8B5144B1446D961826003F110024260FE
:10B82000022C1A69026038BF02245060186108199E
:10B830000D4600F01AFB022700F013FB431BA34246
:10B84000064606D37C1C281900F01CFB274635460B
:10B85000F2E7022F04D9BDE8F8400120FFF7A0BFAE
:10B86000F8BD00BF6814002070B50D46064600F014
:10B87000F8FA0F490B4653F8102F9A4206D12A4680
:10B8800001463046BDE87040FFF7C2BFCB69C41A1D
:10B890002C19936828BF2C46A34202D92946FFF7EA
:10B8A0009CFF224631460348BDE87040FFF780BF49
:10B8B000681400207814002010B4036100235DF8A0
:10B8C000044BC2604361FFF7CFBF000010B5194CB5
:10B8D000236998420DD003684268816813605A60FA
:10B8E0009A680A449A60002303604FF0FF33A36113
:10B8F00010BD2346026843F8102F536000220260F7
:10B9000022699A4203D1BDE8104000F0B6BA9368AC
:10B9100081680B44936000F0A4FA2269E16992689F
:10B92000441AA242E4D91144BDE81040091AFFF7B5
:10B9300054BF00BF681400202DE9F047DFF8B8803D
:10B9400008F110072B4ED8F8105000F08AFAD8F8FA
:10B950001C40AA68011B8A423DD82B6814446A68BF
:10B96000C8F81C4013605A6000232B60D8F81020E0
:10B97000B242994601D100F080FA89F31188EB6850
:10B98000296928469847302383F311886B69002B77
:10B99000D9D000F066FA6A69A0EB04094A458246EC
:10B9A0000DD20220FFF7FCFE0022D8F81030B3427F
:10B9B00008D151462846BDE8F047FFF729BF224489
:10B9C000121AF2E712EB090938BF4A4629463846EF
:10B9D000FFF7EEFEB6E7D8F81010B14208D01444D5
:10B9E000211AC8F81C00A960BDE8F047FFF7F5BEB2
:10B9F000BDE8F08778140020681400200023037548
:10BA0000826803691B6899689142FBD25A68036097
:10BA100042601060586070470023037582680369B4
:10BA20001B6899689142FBD85A68036042601060B5
:10BA30005860704708B50846302383F311880A7DA3
:10BA40000023052A06D8DFE802F00B050503120ED5
:10BA5000826913604FF0FF338361FFF7CFFF00234C
:10BA600083F3118808BD826993680133936042684B
:10BA7000036813605A60EDE7FFF7C0BF054BD96854
:10BA80000875186802681A60536001220275D86050
:10BA9000FCF748BB6814002030B50C4BDD684B1C2C
:10BAA00087B004460FD02B46094A6846FFF704FFCB
:10BAB0002046FFF7E3FF009B13B16846FFF706FF40
:10BAC000A86907B030BDFFF7D9FFF9E76814002077
:10BAD00035BA0008044B1A68DB6890689B68984286
:10BAE00094BF00200120704768140020084B10B557
:10BAF0001C68D86822681A60536001222275DC60D5
:10BB0000FFF78AFF01462046BDE81040FCF70ABB5C
:10BB100068140020044B1A68DB6892689B689A429C
:10BB200001D9FFF7E3BF70476814002030BFFDE77D
:10BB300070B51B4B01630025044686B085620E4636
:10BB4000586000F02FF904F11003236163614FF096
:10BB5000FF33A36124606460A560E562E56100F0E5
:10BB600080F92B460246C4E9082304F134010D4A4A
:10BB7000E5658023204600F01BF80123E0600A4AB7
:10BB80000375009272680192B268CDE90223074BF7
:10BB90006846CDE9043500F03DF806B070BD00BF41
:10BBA00060140020BBDB0008C0DB00082DBB0008D0
:10BBB0008B6002224B62002308618A820B62CB6198
:10BBC000084670478368C168A3F18C0243F81C2CB7
:10BBD000026943F84C2C426943F8482C0B4A43F85D
:10BBE0002C2C02220A4803F8142C002243F8180CCB
:10BBF00043F8201C03F8132C43F8041C43F8082CCA
:10BC000043F80C2CA3F12800704700BF3D810008C9
:10BC10006814002008B5FFF7D5FFBDE80840FFF71E
:10BC20002BBF0000024BDB6898610F20FFF726BF97
:10BC300068140020302383F31188FFF7F3BF08B5A1
:10BC40000146302383F311880820FFF725FF0023E6
:10BC500083F3118808BD0000054BDB6821B1036048
:10BC600098610320FFF718BF4FF0FF30704700BF07
:10BC7000681400200346006820B100221A60816128
:10BC8000FFF7FABE704710B503461B68984203D011
:10BC90009C688A689442F8D25A680B604A601160C6
:10BCA000596010BD00230060406083607047000051
:10BCB00038B58168164B0446DD6891B92B6A8560FA
:10BCC000C360286238BD8B600B7D7BB1062B14D11D
:10BCD0000B684A68886913605A60FFF7D4FF8B6964
:10BCE0009968AB688A689A42EDD306E04A680B68A7
:10BCF000136008465A60FFF7BFFE20462946FFF74B
:10BD0000C2FFAC610620BDE83840FFF7B7BE00BFF8
:10BD10006814002008B5302383F31188FFF7C8FFAB
:10BD2000002383F3118808BD154A10B5D168034676
:10BD3000302282F31188C26800680A6298421BD0E0
:10BD4000486A82B98860186802681A605360026A9B
:10BD50009860DA600362FFF78FFEFFF7DBFE0023D7
:10BD600083F3118810BD1468A24203D0A468A042D6
:10BD700038BF2046D268E4E700238360EFE700BFC6
:10BD800068140020EFF3098305494A6B22F0010291
:10BD90004A63683383F30988002383F3118870476B
:10BDA00000EF00E0302080F3118862B60C4B0D4AA2
:10BDB000D96821F4E0610904090C0A43DA60D3F878
:10BDC000FC20094942F08072C3F8FC200A6842F066
:10BDD00001020A602022DA7783F82200704700BF50
:10BDE00000ED00E00003FA05001000E010B530237C
:10BDF00083F311880E4B5B6813F4006314D0F1EEEB
:10BE0000103AEFF30984683C4FF08073E361094B0B
:10BE1000DB6B236684F30988FFF75CFE10B1064BE9
:10BE2000A36110BD054BFBE783F31188F9E700BF61
:10BE300000ED00E000EF00E04F81000852810008B3
:10BE400008B500F003FC00F0EFFD00F06BF800F027
:10BE500090F8FFF7ACFBBDE8084000F000B801F037
:10BE600023BB4FF08043586A70474FF08043002255
:10BE700058631A610222DA6070474FF08043002253
:10BE8000DA6070474FF080435863704773B50D4ECA
:10BE9000044640F2E735236801A99B69204698478C
:10BEA00001280DD10198AC460021E0FB06C14FF4FA
:10BEB0007A7200236046FCF74FF9FFF7C0FEEAE70D
:10BEC00002B070BDA0860100036810B55B680C4627
:10BED0009847C36813B153F8340010BD006960433C
:10BEE000FBE7036810B55B680C469847C3681BB155
:10BEF00003EBC403586810BD0069FCE7036810B584
:10BF00005B680C4698474069204410BD08B50C306A
:10BF1000FFF70AFF002008BD08B50C30FFF7FAFE56
:10BF2000002008BD00F062BC034B036001230371D5
:10BF30000C30FFF7B7BE00BF3CDE000810B5302361
:10BF4000044683F31188816000F07EFC0223237194
:10BF5000002080F3118810BD10B53023044683F310
:10BF6000118800F085FC01232371002383F31188DD
:10BF700010BD00F0FBBD012303700023C361836289
:10BF80000362C3624362036343608360704738B5F2
:10BF90000446302383F3118800254160C5600561A4
:10BFA0004561856100F0F2FD0223237085F311885D
:10BFB000284638BDF8B50446302383F3118825465A
:10BFC00000F04AFE00260123666005F8083B18349D
:10BFD000374655F8043F73B1586920B16FF001013D
:10BFE0000C30FFF747FE2B68986920B16FF0010114
:10BFF0000C30FFF73FFEA5422E60EAD1FFF78AFD25
:10C0000087F31188F8BD70B500EB810305465069D0
:10C01000DA600E46144618B11422002101F030FCFB
:10C02000A06918B11422002101F02AFC31462846EB
:10C03000BDE8704000F096BEF8B5836803F00113C8
:10C040000446836000F10C0500F11806002755F83E
:10C05000043F73B1586920B16FF001010C30FFF754
:10C0600009FE2B68986920B16FF001010C30FFF7D1
:10C0700001FEB5422F60EAD12046BDE8F84000F04D
:10C08000FBBEF0B400EB81044789E4680125A46994
:10C090008D403D43458123600023A2606360E360DF
:10C0A000F0BC00F011BFF0B400EB81040789E46834
:10C0B000012564698D403D43058123600023A26012
:10C0C0006360E360F0BC00F095BF10B50378052B0A
:10C0D000044618D1436DD3F8042842F00102C3F896
:10C0E00004285A6942F008025A619A6942F008022B
:10C0F0009A61C820FFF7A3FD626DD2F8043823F0DF
:10C100000103C2F8043810BD2DE9F04705460026AA
:10C1100002230370C66445F8086F044600F118074F
:10C120004FF03008B14655F8043F9BB188F31188B1
:10C130002B68586920B16FF001010C30FFF79AFDB0
:10C140002B68986920B16FF001010C30FFF792FD68
:10C1500089F31188BD422E60E5D184F83460204611
:10C1600000F09CFD63681B6823B120460021BDE8F8
:10C17000F0471847BDE8F087F8B50378052B04466B
:10C1800027D080F850300523037043681B680BB13B
:10C19000042198472546002645F8086F18343027B3
:10C1A00055F8043F9BB187F311882B68586920B17B
:10C1B0006FF001010C30FFF75DFD2B68986920B12D
:10C1C0006FF001010C30FFF755FD86F31188A54291
:10C1D000E6D1F8BD0178052906D190F850204368D2
:10C1E00002701B6803B118477047000070B590F8E3
:10C1F0003430044613B1002380F8343004F1440293
:10C20000204600F058FE63689B68B3B994F8443048
:10C2100013F0600539D00021204601F027F90021F4
:10C22000204601F019F963681B6813B10621204606
:10C230009847062384F8343070BD2046984700287C
:10C24000E4D094F84B2094F84A3043EA0223E26B9E
:10C250009A4288BFE36394F94430E56B002B4FF0BA
:10C26000300380F20881002D00F0F780092284F865
:10C27000342083F311880021E36BA26B2046FFF783
:10C2800012FF002383F31188D6E794F8452003F0CA
:10C290007F0343EA022340F20232934200F0CA8055
:10C2A00021D8B3F5807F4DD00DD8012B44D0022B7F
:10C2B00000F09880002BAED104F14C02A263022260
:10C2C000E2632364BDE7B3F5817F00F0A080B3F59E
:10C2D000407FA0D194F84630012B9CD1B4F84C306B
:10C2E00043F0020337E0B3F5006F52D01CD8B3F52A
:10C2F000A06F36D0A3F5C063012B8CD894F84920E9
:10C30000616894F848304E6894F8471043EA022375
:10C31000204694F84620B04700283FF47CAF43689D
:10C32000A3630368E3631AE0B3F5106F36D040F6F9
:10C33000024293427FF46FAF5B4BA3630223E3633C
:10C340000023BEE794F84630012B7FF464AFB4F8C5
:10C350004C3023F00203A4F84C30A563E563256458
:10C360006FE7B4F84430B3F5A06F0ED194F84630BF
:10C3700084F84E30204600F0E9FC63681B6813B176
:10C38000012120469847032323700023A363E3631E
:10C3900097E704F14F03A3630123C3E72378042B3A
:10C3A00010D1302383F311882046FFF745FE85F333
:10C3B00011880321636884F84F5021701B680BB10A
:10C3C0002046984794F84630002BDED084F84F3052
:10C3D0000423237063681B68002BD6D002212046FB
:10C3E0009847D2E794F848301D0603F00F01204625
:10C3F0000AD500F053FD012804D002287FF40BAFCA
:10C400002A4B9AE72A4B98E700F03BFDF3E794F8B4
:10C410004630002B7FF4FFAE94F8483013F00F0144
:10C42000B3D01A06204602D501F034F8ADE701F08A
:10C4300027F8AAE794F84630002B7FF4ECAE94F886
:10C44000483013F00F01A0D01B06204602D501F0A2
:10C450000DF89AE701F000F897E7142284F83420E9
:10C4600083F311882B462A4629462046FFF709FE0A
:10C4700085F31188E0E65DB1152284F8342083F35A
:10C4800011880021E36BA26B2046FFF7FAFDF8E666
:10C490000B2284F8342083F311882B462A46294640
:10C4A0002046FFF700FEE3E768DE000866DE0008CE
:10C4B00064DE000838B590F834300446002B42D0D2
:10C4C000063BDAB20F2A38D80F2B36D8DFE803F054
:10C4D0003B353508263635353535353535353B3B35
:10C4E00090F84A3090F84B20C56B43EA02239D42F6
:10C4F00014D2C3681B8AB5FBF3F203FB12556DB966
:10C50000302383F311882B462A462946FFF7CBFDBB
:10C5100085F311880A2384F834300EE0142384F85C
:10C520003430302383F3118800231A4619462046FD
:10C53000FFF7A7FD002383F3118838BD036C03B117
:10C5400098470023E7E70021204600F08FFF0021F5
:10C55000204600F081FF63681B6813B10621204666
:10C5600098470623D7E710B590F83430142B0446CB
:10C5700029D017D8062B05D001D81BB110BD093B17
:10C58000022BFBD80021204600F070FF002120463E
:10C5900000F062FF63681B6813B1062120469847CC
:10C5A000062319E0152BE9D10B2380F83430302312
:10C5B00083F3118800231A461946FFF774FD002300
:10C5C00083F31188DAE7C3689B695B68002BD5D1D8
:10C5D000036C03B19847002384F83430CEE700F1B0
:10C5E000604303F561430901C9B283F800130122D6
:10C5F00000F01F039A4043099B0003F1604303F5D9
:10C600006143C3F880211A60704700F01F030122C4
:10C610009A4043099B0003F1604303F5614300F135
:10C62000604000F56140C3F88020C3F880210023FA
:10C6300080F80033704708B500F05AFFBDE80840A5
:10C64000FFF7D4BB07211C20FFF7C9BF1E4B1A6997
:10C6500062F09F021A611A6902F09F021A614FF09C
:10C66000FF301A695A69586100215A6959615A693B
:10C670001A6A62F080521A621A6A02F080521A62D2
:10C680001A6A5A6A58625A6A59625A6A1A6C42F0AD
:10C6900080521A641A6E42F080521A661A6E0B4A61
:10C6A000106840F480701060186F00F44070B0F5AE
:10C6B000007F1EBF4FF4803018671967536823F45A
:10C6C00000735360FFF7BEBF0038024000700040A7
:10C6D000344B4FF080521A64334A4FF4404111609A
:10C6E0001A6842F001021A601A689107FCD59A682C
:10C6F00022F003029A602B4B9A6812F00C02FBD1D5
:10C70000196801F0F90119609A601A6842F48032E0
:10C710001A601A689203FCD55A6F42F001025A67F8
:10C72000204B5A6F9007FCD5204A5A601A6842F095
:10C7300080721A601C4A53685904FCD5194B1A6858
:10C740009201FCD51A4A9A600322C3F88C20194B37
:10C750001A68194B9A42194B21D1194A1168194A82
:10C7600091421CD140F203121A60144A136803F07C
:10C770000F03032BFAD10B4B9A6842F002029A6026
:10C780009A6802F00C02082AFAD15A6C42F48042EC
:10C790005A645A6E42F480425A665B6E704740F2A9
:10C7A0000372E1E700380240007000401960410860
:10C7B00000948838002004E011640020003C02400E
:10C7C00000ED00E041C20F41C169CB68024698B25A
:10C7D000C860D90608D413F0620006D01379042B80
:10C7E00014BF0420032070470620704710B50F4C7B
:10C7F0002046FFF799FB0E4BE3610E4B5A8C802AC3
:10C800004FEA82230BD0B3F5802F0AD0B3F5C02FA7
:10C8100009D0B3F5002F01D1074B236210BD074BA0
:10C82000FBE7074BF9E7074BF7E700BFC814002009
:10C83000003C0240007AFF1F6CDE0008C0DE0008EA
:10C84000A4DE000888DE0008C369064A59680A4366
:10C850005A605968044A0A435A60044B00221A611C
:10C86000704700BF23016745AB89EFCD003C024014
:10C87000C269136943F0004313617047006A70474F
:10C8800038B5044618462379052B0ED003232371AF
:10C89000E3694FF6FF75DD60236A5B69194400F0B8
:10C8A000F7FF02232371002038BD0120FCE72DE9AA
:10C8B000F3479A460379052B05460F4616464CD09A
:10C8C000C469D0F82080042303714FF6FF73E3603E
:10C8D000236923F440732361236943F400732361C4
:10C8E000236943F0010323614FF0FF09002E32D08A
:10C8F000D8F80430002103E008326A4402F8049CAE
:10C90000CAB2934201F10101F6D8D8F8141027F009
:10C91000030207F0030308336B441AF8010B03F812
:10C92000040C0137B80706F1FF3601D0002EF0D114
:10C93000019B8B50E368DB03FCD42846FFF744FFE0
:10C940000028D3D0236923F00103236102232B7134
:10C9500002B0BDE8F0873046F4E70120F8E703793C
:10C96000052B0CBF0120072070470379052B1DD034
:10C9700005230371C3694FF6FF72DA601A6942F04A
:10C9800002021A611A6922F0F8021A611A6922F485
:10C9900040721A611A6942EAC10141F400711961D9
:10C9A0001A6942F480321A610020704701207047F2
:10C9B00038B50279052A044611D1C369DD68ED0353
:10C9C00008D41A6922F006021A61FFF7FDFE02235D
:10C9D000237138BD09B90120FBE70A60FBE700209D
:10C9E000F7E770B50379052B05460E461AD0036AA2
:10C9F0005C69FFF769FA032304442B71314628462A
:10CA0000FFF76FFA20F0030023462044834203D14E
:10CA1000002002232B7170BD53F8042B0132F5D096
:10CA20000520F6E70120F6E770472DE9F74FC2F33E
:10CA3000C31302F0030AC2F38009C2F3C108C2F3B0
:10CA4000411E0193574600224FF00F0BCB0737D5FD
:10CA5000019C02F007039B0004FA03FC01254468D3
:10CA6000954024EA050444EA0904446085680324E7
:10CA7000560004FA06F625EA060545EA080585602B
:10CA8000C56825EA060545EA0E050BFA03F3BAF177
:10CA9000020F6FEA0604C5606FEA03031BD1072A81
:10CAA00095BF056A456A1D401D4095BF45EA0C05C6
:10CAB00045EA0C0505624562036823403B43036079
:10CAC00049081AD04FEA49094FEA88084FEA8E0E02
:10CAD000BF000132BAE705682C403C430460072AD6
:10CAE00095BF046A446A1C401C4095BF44EA0C048C
:10CAF00044EA0C0404624462E2E703B0BDE8F08F4C
:10CB0000836D70B5446D9E6800224FF0FF3504EBD5
:10CB100042135101D3F800090028BEBFD3F8000921
:10CB200040F08040C3F80009D3F8000B0028BEBFD6
:10CB3000D3F8000B40F08040C3F8000B01326318BB
:10CB4000B242C3F80859C3F8085BE0D94FF00113AB
:10CB5000C4F81C3870BD890141F0200101610369EE
:10CB60009B06FCD41220FEF711BE000010B5054C48
:10CB70002046FFF700FA4FF0A0436365024BA36520
:10CB800010BD00BFEC140020ACDF000870B50378C6
:10CB9000012B054650D12A4B446D98421BD1294B9D
:10CBA0005A6B42F080025A635A6D42F080025A6515
:10CBB0005A6D5A6942F080025A615A6922F0800225
:10CBC0005A610E2143205B69FFF709FD1E4BE360AC
:10CBD0001E4BC4F800380023C4F8003EC023236075
:10CBE0006E6D4FF40413A3633369002BFCDA012349
:10CBF00033610C20FEF7CAFD3369DB07FCD4122039
:10CC0000FEF7C4FD3369002BFCDA0026A660284637
:10CC1000FFF776FF6B68C4F81068DB68C4F8146827
:10CC2000C4F81C684BB90A4BA3614FF0FF33636132
:10CC3000A36843F00103A36070BD064BF4E700BF97
:10CC4000EC14002000380240401400400300200291
:10CC5000003C30C0083C30C038B50378456D012B2E
:10CC6000044616D0FFF74CFF0023C5F81C38AB6014
:10CC7000AB63084B9C420CD14320FFF7C6FC064B2C
:10CC80005A6B22F080025A635A6D22F080025A6574
:10CC90005B6D38BDEC14002000380240F8B5446DDF
:10CCA000054600212046FFF756FFA96D00234FF0EF
:10CCB00001128F68C4F834384FF00066C4F81C289D
:10CCC0004FF0FF3004EB431201339F42C2F800697A
:10CCD000C2F8006BC2F80809C2F8080BF2D20B6860
:10CCE0006A6DEB65636210231361166916F0100616
:10CCF000FBD11220FEF74AFDD4F8003823F4FE637E
:10CD0000C4F80038A36943F4402343F01003A3613F
:10CD10000923C4F81038C4F814380A4BEB604FF0FC
:10CD2000C043C4F8103B084BC4F8003BC4F810697A
:10CD3000C4F80039EB6D03F1100243F48013EA6587
:10CD4000A362F8BDB8DF000840800010426D90F883
:10CD50004E10D2F8003823F4FE6343EA0113C2F800
:10CD6000003870472DE9F84300EB81030C460FFAB9
:10CD700081F9D968456D0E6806F00306731E022B13
:10CD800005EB44134FF00002C3F8102B04F110021E
:10CD90004FF0010398BFB60403FA02F38A698CBF0F
:10CDA000334E06F18056804698BF06F50046600176
:10CDB000002A39D04F8A04F1580252013743AF504C
:10CDC000D5F81C281343C5F81C382B180022C3F8CB
:10CDD00010294A690127631EA74092B30A8A898BEA
:10CDE0009208012988BF4A434033D8F85C1005EB0C
:10CDF0008303501841EA0241C8F85C005960284694
:10CE00002146FFF7A8FE08EB8900C3681B8A43EAA6
:10CE100084534834640133432B51D5F81C383B43C9
:10CE2000C5F81C38BDE8F88305EB4917D7F8002B87
:10CE300022F40042C7F8002BD5F81C2822EA03038D
:10CE4000C1E704F13F0305EB83030A4A5A60214618
:10CE50002846FFF780FE05EB4913D3F8002922F49A
:10CE60000042C3F80029D5F81C3823EA0703D7E7A6
:10CE70000080001000040002826D1268C265FFF796
:10CE80003FBE5831436D49015B5813F4004004D054
:10CE900013F4001F14BF0120022070474831436D76
:10CEA00049015B5813F4004004D013F4001F14BF71
:10CEB000012002207047034603EB81031046DB6824
:10CEC0000822196A00F0E4BC00EB810330B5DD688C
:10CED000AA691368136119B9402B84BF40231360FA
:10CEE0006B8A1468426D1C44013CB4FBF3F4634349
:10CEF000033323F0030302EB411043EAC44343F03E
:10CF0000C043C0F8103B2B6803F00303012B09B2A8
:10CF10000ED1D2F8083802EB411013F4807FD0F81C
:10CF2000003B14BF43F0805343F00053C0F8003B74
:10CF300002EB4112D2F8003B43F00443C2F8003B3D
:10CF400030BD0000F8B52A4D6E6D06EB4013044667
:10CF5000D3F8087BC3F8087B38070AD5D6F814380D
:10CF6000190706D505EB84032146DB6828465B6874
:10CF70009847FA0720D5D6F81438DB071CD5A61C2D
:10CF800005EB860359688B69BCB9488A5A68B2FBBD
:10CF9000F0F700FB172282B918681A6990420CD288
:10CFA000121AC3E90024302383F311881048214664
:10CFB000FFF78AFF84F31188F8BD6B890122A24034
:10CFC00023EA02036B81CB6813B1094821469847D5
:10CFD000302383F3118805EB86056B6898694168F7
:10CFE0000C30FEF747FE002383F31188E4E700BF0F
:10CFF000EC14002000EB810370B5DD68436D6C69B3
:10D00000266826614A014EBB1A444FF40020C2F83C
:10D0100010092A6802F00302012A0AB20ED1D3F8DD
:10D02000080803EB421410F4807FD4F8000914BF01
:10D0300040F0805040F00050C4F8000903EB421269
:10D04000D2F8000940F00440C2F80009D3F83408CF
:10D0500001228A400243C3F8342870BD19B9402E1A
:10D0600084BF4020206020682E8A8419013CB4FBD4
:10D07000F6F440EAC44040F000501A44C7E700000C
:10D080002DE9F843414DD5F8548008EB4013044690
:10D09000D3F80899C3F8089919F0010F4FEA40171F
:10D0A00019D0D8F81038DB0715D5861C05EB860398
:10D0B00059684B6918681A6990422ED2121A0026D4
:10D0C0001A605E60302383F3118821462846FFF7FB
:10D0D00091FF86F3118819F0800F1CD0D8F83438EE
:10D0E0000126A640334216D005EB84036D6DD3F8BC
:10D0F0000CC0DCF814200134E4B2D2F800E005EBF7
:10D1000004342F445168714521D3D5F8343823EACB
:10D110000603C5F83438BDE8F8832B890122A24004
:10D1200023EA02032B818B6813B1214628469847D6
:10D13000302383F3118805EB860600217368586954
:10D140000C30FEF797FD002383F31188C3E7BCF88A
:10D150001000AEEB0103834228BF0346D7F818093D
:10D1600080B2B3EB800FD6D89068A0F1040959F8CB
:10D17000048FC4F80080A0EB09089844B8F1040FAC
:10D18000F5D81844194490605160BBE7EC140020B6
:10D190002DE9F74FA74C656D6E69AB691E4016F41B
:10D1A00080586E6107D02046FEF7AEFF03B0BDE8A1
:10D1B000F04FFEF71BBE002E12DAD5F8003E9D4858
:10D1C0009B071EBFD5F8003E23F00303C5F8003EC1
:10D1D000D5F8043823F00103C5F80438FEF7FAFF48
:10D1E000370505D59348FFF78BFC9248FEF7C4FF3F
:10D1F000B0040CD5D5F8083813F0060FEB6823F40B
:10D2000070530CBF43F4105343F4A053EB60310749
:10D210001BD56368DB681BB9AB6923F00803AB61FE
:10D220002378052B0CD1D5F8003E82489A071EBF03
:10D23000D5F8003E23F00303C5F8003EFEF7CAFF11
:10D240006368DB680BB17B489847F30243D5002144
:10D25000D4F854A00F460AEB4713D3F8002902F480
:10D260004022B2F5802F2FD1D3F80029002A2BDAE3
:10D27000D3F8002942F09042C3F80029D3F80029DE
:10D28000002AFBDB606DFFF766FC23890122BA40B0
:10D2900023EA020307F10209238104EB89035B6897
:10D2A0009B6813B1634839469847302383F311884C
:10D2B00004EB89090021D9F8043058690C30FEF7D5
:10D2C000D9FC002383F31188A36D01379B68FFB25B
:10D2D0009F423946BFD9B70238D5636D0093002706
:10D2E0004FF001094FF0300ABB46009B03EB471299
:10D2F000D2F8003B03F44023B3F5802F20D1D2F8BD
:10D30000003B002B1CDA638909FA07F223EA0203C7
:10D310006381BB1C04EB83025268D26822B145488A
:10D32000019339469047019B8AF3118804EB8303EC
:10D330005B68986941680C30FEF79CFC8BF31188A0
:10D34000A36D01379B68FFB29F42CED9F00616D578
:10D35000676D3A6AC2F30A1002F00F0302F4F0128A
:10D36000B2F5802F4AD0B2F5402F08D104EB8303E9
:10D370000022DB681B6A07F58057904230D13003EA
:10D38000D5F8184813D5E10302D50020FFF7DAFDE0
:10D39000A20302D50120FFF7D5FD630302D50220C9
:10D3A000FFF7D0FD270302D50320FFF7CBFD750360
:10D3B0007FF5FCAEE00702D50020FFF761FEA10774
:10D3C00002D50120FFF75CFE620702D50220FFF7BD
:10D3D00057FE23077FF5EAAE0320FFF751FEE5E68F
:10D3E000910708BFD7F80080072A98BF03F8018B80
:10D3F00002F1010298BF4FEA1828BEE7023304EB9E
:10D40000830207F580575268D2F818C0DCF808206C
:10D41000DCE9001CA1EB0C0C002188420CD104EBD0
:10D42000830463689B699A6802449A605A6802445C
:10D430005A60A4E7EC14002011F0030F08BFD7F8DE
:10D4400000808C4588BF02F8018B01F1010188BF83
:10D450004FEA1828E1E700BF436D03EB4111D1F813
:10D46000003B43F40013C1F8003B7047436D03EBEE
:10D470004111D1F8003943F40013C1F80039704765
:10D48000436D03EB4111D1F8003B23F40013C1F8C5
:10D49000003B7047436D03EB4111D1F8003923F491
:10D4A0000013C1F8003970470F4B1A6C42F00102AB
:10D4B0001A641A6E42F001021A660C4A1B6E9368D7
:10D4C00043F0010393604FF0804340F2DF129A6211
:10D4D0004FF0FF32DA6200229A615A63DA605A60D2
:10D4E00001225A611A60704700380240002004E0AF
:10D4F0004FF0804208B51169D3680B40D9B2C943D7
:10D500009B07116107D5302383F31188FEF73CF99F
:10D51000002383F3118808BD4B6843608B688360E8
:10D52000CB68C3600B6943614B6903628B694362DB
:10D530000B6803607047000008B51D4B1D481A6951
:10D5400042F09F021A611A6922F09F021A611A6959
:10D550001A6B42F09F021A631A6D42F09F021A651D
:10D56000154A1B6D1146FFF7D7FF02F11C0100F5AC
:10D570008060FFF7D1FF02F1380100F58060FFF70E
:10D58000CBFF02F1540100F58060FFF7C5FF02F107
:10D59000700100F58060FFF7BFFF02F18C0100F51C
:10D5A0004060FFF7B9FFBDE80840FFF791B800BF42
:10D5B0000038024000000240DCDF0008704770477E
:10D5C0002DE9F04786468C460846089E1546744667
:10D5D0001946002B40F0C2808542B2FA82F245D94A
:10D5E0004AB1C2F1200300FA02FC2EFA03F395407F
:10D5F00043EA0C0C94404FEA154EA8B2BCFBFEF86F
:10D60000230C0EFB18CC08FB00F943EA0C439945A8
:10D6100028D9EB1808F1FF3704D2994502D9A8F1AF
:10D6200002072B44A3EB0903A4B2B3FBFEFC0EFBE1
:10D630001C330CFB00F044EA0344A04214D92C191B
:10D640000CF1FF3304D2A04202D9ACF102032C4406
:10D65000241A43EA07401EB1D440002334607360AB
:10D66000BDE8F0874746DDE76346F1E792BB431B21
:10D6700001214FEA154EAFB2B3FBFEFC200C0EFBAE
:10D680001C330CFB07F840EA0343984562D9EB18BA
:10D690000CF1FF3004D2984502D9ACF102002B44C2
:10D6A000A3EB0803A4B2B3FBFEFC0EFB1C330CFB84
:10D6B00007F744EA0344A7424ED92C190CF1FF3373
:10D6C00004D2A74202D9ACF102032C44E41B43EA82
:10D6D0000040C0E7C2F1200320FA03F195409040DA
:10D6E0002EFA03F303434FEA154EAFB2B1FBFEFC33
:10D6F0000EFB1C10190C0CFB07F841EA0041884591
:10D7000004FA02F422D969180CF1FF3004D28845DA
:10D7100002D9ACF102002944A1EB08019BB2B1FB94
:10D72000FEFC0EFB1C110CFB07F743EA01439F4272
:10D730000ED9EB180CF1FF3104D29F4202D9ACF1A3
:10D7400002012B44DB1B41EA004192E76046E3E71C
:10D750006146F7E76046A3E76346B7E7834206D929
:10D7600016B9002108467BE7C6E900E0F9E7B3FAFD
:10D7700083F78FB9834201D3724508D8BEEB020408
:10D7800060EB030301209C461EB9002168E7384680
:10D79000FAE7C6E9004CF8E7C7F1200CBB4022FAD3
:10D7A0000CF41C432EFA0CF120FA0CF3B8400143A0
:10D7B0004FEA14490EFA07F5B3FBF9F81FFA84FE95
:10D7C00009FB18300B0C08FB0EFA43EA00439A459C
:10D7D00002FA07F240D9E31808F1FF3004D29A4563
:10D7E00002D9A8F102002344A3EB0A0389B2B3FBD8
:10D7F000F9F809FB183308FB0EFE41EA03418E4598
:10D800002CD9611808F1FF3304D28E4502D9A8F152
:10D810000203214443EA0040A0FB0298A1EB0E0161
:10D820004145CE46434602D306D14D4504D2B9EB1D
:10D83000020E68EB04030138002EA6D0B5EB0E02F1
:10D8400061EB030101FA0CFC22FA07F34CEA030333
:10D85000F940C6E9003198E74046C5E74346D9E7B5
:10D8600010B501390244904201D1002005E003784F
:10D8700011F8014FA34201D0181B10BD0130F2E78F
:10D8800002440346934200D1704703F8011BF9E7B5
:10D890000A44914200F1FF3300D1704710B511F8EE
:0CD8A000014B03F8014F9142F9D110BD7B
:10D8AC00290000003A003B003C003D003E003F00D8
:10D8BC004000410042004300440045004600470040
:10D8CC004800A600AC00AE00AB0035001E001F00E7
:10D8DC002000210022002300240025002600270020
:10D8EC002D002E002A0049004A004B005300540022
